:020000040800F2
:1010000028140020E530000865660008013000085B
:1010100001300008013000080130000801300008EC
:10102000013000080130000801300008112F0008CD
:101030000130000801300008C92E0008F92C000812
:10104000BD300008BD300008BD300008BD300008CC
:10105000BD300008BD300008BD300008BD300008BC
:10106000BD300008BD300008BD300008BD300008AC
:1010700029460008BD300008BD300008BD3000081A
:10108000BD300008BD300008BD300008BD3000088C
:10109000BD300008BD300008BD300008BD3000087C
:1010A000BD300008BD300008BD300008BD3000086C
:1010B000BD300008BD300008BD300008BD3000085C
:1010C000BD300008BD300008BD300008BD3000084C
:1010D000BD300008BD300008BD300008C94400081C
:0C10E000BD300008BD300008BD30000825
:1010EC0053B94AB9002908BF00281CBF4FF0FF3183
:1010FC004FF0FF3000F06EB9ADF1080C6DE904CE85
:10110C0000F006F8DDF804E0DDE9022304B07047D6
:10111C002DE9F047089E0D4604468E46002B40F004
:10112C0083808A42174647D9B2FA82F34BB1C3F196
:10113C00200105FA03FE20FA01F19F4041EA0E0E50
:10114C009C404FEA1748BEFBF8FC1FFA87F908FBD6
:10115C001CE20CFB09F0210C41EA024290420AD934
:10116C00BA180CF1FF3180F01881904240F21581D1
:10117C00ACF1020C3A44121AB2FBF8F008FB102244
:10118C0000FB09F1A4B244EA0244A14209D93C197A
:10119C0000F1FF3280F00381A14240F2008102385D
:1011AC003C44641A002140EA0C401EB10022DC4091
:1011BC00C6E90042BDE8F08702B9FFDEB2FA82F35D
:1011CC00002B4FD18D1A01214FEA124E1FFA82F8D3
:1011DC00B5FBFEFC0EFB1C5508FB0CF0220C42EA86
:1011EC000545A84207D97D190CF1FF3202D2A8425D
:1011FC0000F2E98094462D1AB5FBFEF00EFB10555B
:10120C0008FB00F8A4B244EA0544A04507D93C19F0
:10121C0000F1FF3202D2A04500F2D9801046A4EBB7
:10122C00080440EA0C40C0E78B4208D9002E00F0BD
:10123C00B1800021C6E900050846BDE8F087B3FA85
:10124C0083F100294BD1AB4202D3824200F2B98028
:10125C00841A65EB030301209E46002EAAD0C6E932
:10126C00004EA7E79F40C3F12002D1404FEA174E32
:10127C00B1FBFEF01FFA87F80EFB101124FA02F2F4
:10128C009D4000FB08FC2A43150C45EA0145AC4582
:10129C0004FA03F409D97D1900F1FF3180F08F8035
:1012AC00AC4540F28C8002383D44A5EB0C05B5FBF7
:1012BC00FEF10EFB115C01FB08F995B245EA0C45F9
:1012CC00A94507D97D1901F1FF3274D2A94572D90C
:1012DC0002393D44A5EB090541EA004178E7C1F12B
:1012EC0020078B4022FA07FC4CEA030C25FA07F482
:1012FC004FEA1C4EB4FBFEF91FFA8CF80EFB194496
:10130C0020FA07F309FB08FA8D401D432B0C43EA26
:10131C000444A24502FA01F200FA01F309D91CEBCC
:10132C00040409F1FF3048D2A24546D9A9F10209BB
:10133C006444A4EB0A04B4FBFEF00EFB104400FB67
:10134C0008FAADB245EA0444A24508D91CEB0404E2
:10135C0000F1FF352DD2A2452BD90238644440EA66
:10136C000940A0FB0289A4EB0A044C45C6464D4635
:10137C0019D316D05EB1B3EB0E0264EB050404FA7C
:10138C0007F722FA01F31F43CC40C6E90074002191
:10139C00BDE8F087314630460CE78C46EBE610464C
:1013AC00FFE64345E6D2B8EB020E69EB0C050138BB
:1013BC00E0E72846D3E711468CE78146B9E70846B3
:1013CC0073E7084649E7ACF1020C3D4413E70238D9
:1013DC003C4424E7704700BF70B5074D074C2B68A1
:1013EC0021461B68002098472B682146BDE87040B9
:1013FC0001201B68184700BFB402002041140008EC
:10140C0008B5D1F80220074B9A4209D10649074B7F
:10141C000748C91AC908890141F0030104F0BBFD52
:10142C00052008BD78563412447E0008447E00081E
:10143C001680000870B50C460F4E0A4606F233159E
:10144C000146284605F043F90C4A0D4B29469B1AD8
:10145C00DB089B0122460B4843F0040386F8334219
:10146C0004F0EFFD084804F0A5F8BDE87040074B08
:10147C001B685B68184700BF80000020447E000892
:10148C00447E00082780000870000020B402002071
:10149C002DE9F0472B4B2C4C2C4EE41ADFF8C8905E
:1014AC00E40806F132074FF0FF31484604F0A8F883
:1014BC00A50130B1FFF790FF254845F0010104F07C
:1014CC006AFD224805F054FE45F00302014621480E
:1014DC0004F06EFD96F8322145F0040339461E489F
:1014EC0004F0AFFD1D4ADFF884A01388A846013331
:1014FC00DAF80000138043680D225D680021012397
:10150C00A847174B4FF47A721B6838469B6896F8BD
:10151C00321198470546052004F028F8DAF8000047
:10152C0043680D22D3F804A000231946D047002DA0
:10153C00B9D0FFF751FF29460A4848F0010204F0E0
:10154C0037FDB0E7447E0008447E00088000002090
:10155C003B8000084C80000863800008E0080020F5
:10156C00B402002078800008700000206C0000207D
:10157C0070B500F09FFF284803F016FA274C206046
:10158C0043680D221D6800210123A8472068436889
:10159C000D225C6800231946A047214803F004FA89
:1015AC00204C43682360012200211F4806F06BFA8F
:1015BC0023681E491B68012098471B231C481D4E9D
:1015CC0003701D4B1D4D4360202343821C4B8361D4
:1015DC001023C3841B4BC3620123038605F04DFE0D
:1015EC00194B1A491A48C91AC908890141F0030153
:1015FC0004F0D1FC00F048FF04460146304604F0EC
:10160C006DFC204605F050F8044414F8011C2846E3
:10161C0004F064FCEEE700BF878000086C0000203B
:10162C008D800008B40200207000002041140008D6
:10163C0080000020B0800008E0080020BA8000087C
:10164C0020090020C8210020447E0008447E0008A8
:10165C00978000080B6801330B60014B1B6818471F
:10166C00D02100202DE9F04F85B00E9C9B46012C1B
:10167C00B8BF0124012B0CBF30232023154606468E
:10168C008A4601274FF00A080022DFF87090029377
:10169C00B5FBF9F301930AB9A9451ED8019B514634
:1016AC0003F13000B04701220137019B08F1FF38EC
:1016BC0009FB13550A23B8F1010FB9FBF3F9E7D174
:1016CC00514605F13000B047BBF1030F02D1E41BCA
:1016DC00002C0EDC05B0BDE8F08F4445E5DBBBF11A
:1016EC00020FE2D85146029803920137B047039A91
:1016FC00DBE751462020B047013CE9E700CA9A3BA2
:10170C00014B1860704700BFD02100202DE9F04F2D
:10171C00002705468B464FF0FF39B8461C468DB066
:10172C00531E0393002605E06EB9252800F0718145
:10173C005946A847039B13F8010F03930028F3D1D4
:10174C000DB0BDE8F08F7A280AD8622810D830285E
:10175C0054D045D8252800F05A812D2800F05F81FF
:10176C0059462520A8475946039B1878A847D9E71E
:10177C00A0F16303172BF3D801A252F823F000BF9A
:10178C00131A0008571800086D1700086D17000889
:10179C006D17000839180008571800086D17000855
:1017AC006D170008391800086D1700086D17000830
:1017BC006D170008F91800086D1700086D17000860
:1017CC00E31900086D170008C71800086D1700080A
:1017DC006D170008F51700086D1700083918000878
:1017EC0039281AD95828BBD1039B1B78702B40F091
:1017FC00888054F8043B0022069390E0B9F1000F66
:10180C000EDAB8F1000F00F00D81A0F13009B8F13B
:10181C00000F08BF4FF002088CE7B9F1000FF4DBA2
:10182C000A2303FB0909A9F13009F0E7682803D161
:10183C00682F06D148277DE76C2802D16C2F00F069
:10184C00F480002F8CD1074674E77A2F02D154F81C
:10185C00046B21E06C2FFAD04C2FF8D1073424F014
:10186C000704F4E80223CDE90423049B4FF0FF3076
:10187C0013F10041059B089143F1000109910021EE
:10188C00DDE90823994208BF904204D25946284604
:10189C0004F016FB46E7049E002E05DA59462D206F
:1018AC00A847764209F1FF3943463246CDF80090FD
:1018BC0059462846FFF7D6FE34E77A2F02D154F862
:1018CC00042B0FE06C2FFAD04C2FF8D100214FF0E5
:1018DC00FF30073424F00704F4E80223994208BFD0
:1018EC009042D3D34346CDF80090E1E759463020DF
:1018FC00A84759467820A8474FF008094FF001082F
:10190C0072E76C2F3FF475AF4C2F7FF472AFE31D71
:10191C0023F007031C4654F8082B06925A68002142
:10192C0010234FF0400A04910791AAF1040A06997A
:10193C00CAF1200EAAF1200C21FA0AF002FA0EFECE
:10194C0040EA0E0022FA0CFC40EA0C0010F00F00EA
:10195C0007D1079911B9BAF1000F25D14FF0300C0E
:10196C0005E009288CBF4FF0570C4FF0300C604449
:10197C00594640B20A920793A847049B0A9A01332E
:10198C000493079BBAF1000F23D1B8F1030F7FF436
:10199C00C9AE049BC3EB4906002E7FF7C3AE594674
:1019AC002020A847013EF7E7591E99450A9107DB0D
:1019BC00B8F1010F06D1594630200B92A8470B9A6B
:1019CC000A9BB2E7B8F1020FFAD1594620200B92CC
:1019DC00F4E70796A9E754F8046BB24653461AF895
:1019EC00010B68B9B8F1030F21D19E1BA9EB0606B8
:1019FC00002E7FF797AE59462020A847013EF7E707
:101A0C005946A847EAE7594654F8040BAEE659463E
:101A1C00ACE63746B0464FF0FF3901268AE64FF068
:101A2C00030887E64FF0010884E64C2782E6064659
:101A3C0080E600BF07B50B46002102460191034822
:101A4C0001A9FFF763FE03B05DF804FB6116000803
:101A5C004FF01002EFF3118382F31188BFF36F8FF5
:101A6C0083F31188BFF36F8F024B034A00201A6077
:101A7C00704700BF0022002000127A0030B500220F
:101A8C0087B00D490D4806F060F800240E230C4D6C
:101A9C00CDE902434FF440722846CDE90444CDE928
:101AAC000044084B084903F009FE0849284605F094
:101ABC00EFFF204607B030BDDD1A0008CC02002035
:101ACC0014030020C11E0008280D0020DE80000831
:101ADC00014803F06FBD00BF0823002008B500F0DB
:101AEC0049FA094804F012FA042328220748084945
:101AFC0005F04DFE074B084A4FF47A701A60BDE8AA
:101B0C00084000F07FBC00BFC4020020F802002097
:101B1C00281D0020D4210020575F0008F8B50025AF
:101B2C00BFF35B8F0D4B53E8007F43E80052002A54
:101B3C00F9D1BFF35B8F0A4C0A4E361B3611B542F6
:101B4C0000DBF8BD63685B792BB12368DB6813B1EC
:101B5C0039462046984701351034F0E7BC02002086
:101B6C006C7E00087C7E0008BFF35B8F054B53E84E
:101B7C00002F013243E800210029F8D1BFF35B8F1D
:101B8C00704700BFBC020020044A054B9B1AB1EB06
:101B9C00D30F34BF52F8310000207047447E000848
:101BAC006C7E0008094B4268C31A1B11013310B537
:101BBC00137101224368064C5A712278196012B9CC
:101BCC00044803F0F7FC0123237010BD6C7E000861
:101BDC00220900200823002070B5BFF35B8F104B47
:101BEC0053E8005F6A1C43E800210029F8D1BFF3D9
:101BFC005B8F2DB90B4C0C4E361B3611B54200DBEE
:101C0C0070BD237B43B123685B6903B19847042201
:101C1C0000212046FFF7C6FF01351034EEE700BF68
:101C2C00C00200206C7E00087C7E0008164B37B585
:101C3C009842044602D3154B98421FD300221448F5
:101C4C0001A903F033F80546D8B9019B0122BFF373
:101C5C005B8F53E8001F43E800200028F9D1BFF345
:101C6C005B8F019821461F22043004F0FCFC7E237C
:101C7C00019C84F8233084F824500434204603B0AB
:101C8C0030BD044CFAE700BF207C00089C8700089C
:101C9C00F8020020E680000848B1054B984205D3B5
:101CAC00A03398422CBF00200120704700207047C1
:101CBC00281D00202DE9F84F434B04461B7803B92F
:101CCC0060B34FF01003EFF3118683F31188BFF369
:101CDC006F8F3E4804F02AF9054686F31188BFF34E
:101CEC006F8F78B1BFF35B8F394B53E8002F013AFC
:101CFC0043E800210029F8D1BFF35B8F8CB1284653
:101D0C0004F02CFA24B9334B1B680BB1FFF706FF18
:101D1C002E4804F009F9041E18BF01242046BDE822
:101D2C00F88F2D4B1B78B3B92B7ADB0713D404F047
:101D3C0028FA8046284604F0EFF90146404604F0A4
:101D4C000AF90646254F264BDFF8A8A0FF1ADFF844
:101D5C00A8B0FF0836B9234E234F4FF00008BF1B25
:101D6C003F112DE0B6FA86F1C1F11F09494628460C
:101D7C0004F0D5F91D4B0246984202D31C4B9842F5
:101D8C000DD31046FFF788FF48B9524507D0BB0169
:101D9C0042464946584643F0010304F01DF901211F
:101DAC0001FA09F126EA0106D4E773685B7923B1DD
:101DBC003368294630461B68984708F101081036ED
:101DCC00B845F2DB9BE700BF22090020C4020020CB
:101DDC00B8020020BC02002023090020547E000819
:101DEC00447E00086C7E00087C7E0008207C000885
:101DFC009C870008E680000800810008264B70B51F
:101E0C001B68418104469847E060BFF35B8F234D0C
:101E1C0055E8003F013345E80032002AF8D1BFF302
:101E2C005B8F4FF01003EFF3118683F31188BFF330
:101E3C006F8F1B48214604F06DF886F31188BFF3B1
:101E4C006F8F184B1A787AB14FF01003EFF311849F
:101E5C0083F31188BFF36F8F0020FFF72BFF84F300
:101E6C001188BFF36F8F70BD0F492B68096800296B
:101E7C00F9D0012B06D1BDE870404FF47A710B48B4
:101E8C0003F0B8BD0A2BEED1084805F06AFEBDE898
:101E9C007040074803F08EBBD4210020B80200200C
:101EAC00C40200202309002078030020CC0200206B
:101EBC000823002008B5FFF78FFE03F075FB0B4BD2
:101ECC00186030B10A4B1B68092B02DD094803F07E
:101EDC0071FB084C0020FFF7EDFE0028FAD14FF003
:101EEC00FF31204603F08CFBF4E700BF78030020A1
:101EFC00B802002008230020F8B50E4F3D7875B9C4
:101F0C00FFF76AFE0C4C0D4E361B3611B54207DB43
:101F1C000020FFF7CFFE0028FAD101233B70F8BD5B
:101F2C0063685B791BB1236820461B6998470135B0
:101F3C001034EBE7230900206C7E00087C7E00083F
:101F4C0007B504380190BFF35B8F50E8003F5A1E71
:101F5C0040E800210029F8D1012BBFF35B8F03D19E
:101F6C00034801A902F0CEFE03B05DF804FB00BFEC
:101F7C00F8020020202302491A46024805F007BC4B
:101F8C00C81D00207C030020002337B5094D0193A8
:101F9C000120FFF78FFE0446FFF7E6FD00222846DE
:101FAC0001A902F083FE08B1002CF1D1019803B015
:101FBC0030BD00BF7C03002007B50022064801A9F4
:101FCC00019202F073FE10B1FFF7DEFF0190019851
:101FDC0003B05DF804FB00BF7C030020F0B5037A6E
:101FEC00467A85B0D90701904FEA16160ED5019B9B
:101FFC001A7A920704D55B69184C0393039B33BB85
:10200C00164801A902F07EFE05B0F0BD002EEED000
:10201C000024254617E0294604F081F80746FFF70F
:10202C003BFE78B13CB9019B3146186903F093FF34
:10203C0004460028DBD024FA05F3DB0702D538462A
:10204C00FFF77EFF0135AE420198E4D8CFE71D685B
:10205C00204603A902F056FE0395CFE77C0300202F
:10206C000EB403B503AB53F8042B0146044801939B
:10207C00FFF74CFB002002B05DF804EB03B0704797
:10208C00336500082DE9F04F11F0020485B090463D
:10209C0006461A469DF8387001F0010901F0080552
:1020AC0007D011F0440F37D13249FFF7D9FF014661
:1020BC000C46B9F1000F0AD02F4B304653F82720AD
:1020CC002E4B2F49002A08BF1A46FFF7C9FF3DB116
:1020DC002C4B304653F827202B49FFF7C1FF054600
:1020EC00B8F1000F43D0012303FA07F7274B17F081
:1020FC00100F274F18BF1F46BDF840109DF83C002D
:10210C00FFF742FD394602463046FFF7A9FF284447
:10211C00204405B0BDE8F08F1E4B19680029C7D0CC
:10212C001D4B4FF4616E1B684FF47A7CB2FBF3F3DA
:10213C00B3FBF1F4B4FBFEF20EFB124E01FB1434B4
:10214C000CFB04F4B4FBF1FB4FF03C0A01FB1B4409
:10215C000CFB04F4BEFBFAF3B4FBF1F1CDE901B1D5
:10216C000AFB13E100910D49FFF77AFF9FE7084F37
:10217C00C2E700BF488100087C7E00083A81000855
:10218C006D810008907E0008708100084481000871
:10219C003F810008980300209C0300205181000817
:1021AC0038B50C46E107054603D5084A0849FFF740
:1021BC0057FFE20608D4A3062846BDE838404CBFBA
:1021CC0004490549FFF74CBF38BD00BF3A810008F0
:1021DC006D81000877810008768100082DE9F047B1
:1021EC001D46089B1746DA0604460E4605D499068A
:1021FC004CBF2A492A49FFF733FF4FF00008DFF89C
:10220C00A890A8452ADB0025DFF8A080DFF8A09075
:10221C00DFF894A0BD422FD249462046725DFFF7ED
:10222C001FFF0135102D20D120461E49FFF718FF46
:10223C000025DFF87480DFF87C90AF4228D9725DFE
:10224C004946A2F120035F2B28BF2E222046FFF720
:10225C0007FF0135102D14D1BDE8F0874946204603
:10226C00FFF7FEFE08F10108CBE76A07D2D1514611
:10227C002046FFF7F5FECDE741462046FFF7F0FE7E
:10228C00CFE76B07D9D141462046FFF7E9FED4E7EB
:10229C0041462046FFF7E4FEDBE700BF77810008EC
:1022AC007681000883810008818100087F81000805
:1022BC0079810008858100082DE9F0478B7A174653
:1022CC0013F0070805460E460A7A8AB021D0D2438D
:1022DC004989C3F3C203C1F38911CDE9008302918B
:1022EC00F368394602F00102FFF7CCFE8146347ADE
:1022FC00E44314F001040ED02946304603F0AAFF43
:10230C00B8F1000F2BD0424639462846FFF748FF5C
:10231C0025E0C146EBE7B8F1000F26D12746EB6864
:10232C0006AA069330463B46A96803F07FFF069A3F
:10233C006B681A603AB1AB68134413F8014CA4F102
:10234C000A035C425C41284604F0E1F8069B1F44FA
:10235C00002BE4D11CB128461349FFF781FE284617
:10236C0004F0D5F80AB0BDE8F087304603F009FF59
:10237C000E4902462846FFF773FE4FF0100A05AAD5
:10238C002346304606A9CDF814A003F04FFF059A5A
:10239C00002AB8D04B462846009706A9FFF71EFF27
:1023AC00059B1C44EBE700BF888100086D81000889
:1023BC0073B5D0E900435D6842F20F738B4228BFBE
:1023CC000B46684605210C4A01F0B2FD06462B4629
:1023DC0020460B22094903F030FF2B463246694652
:1023EC00204603F02AFF2B461B222046044903F00B
:1023FC0024FF02B070BD00BF60800008C6810008D9
:10240C00AA81000801230021074A10B5074C13606C
:10241C00A04204D801B11360054B186010BD012116
:10242C0040085B00F4E700BF9C03002040420F0013
:10243C0098030020014804F06AB800BFBC7E000875
:10244C000148FFF7B5BF00BFBC7E000808B50348C4
:10245C0002F0AAFA024B586008BD00BFD2810008F6
:10246C00A803002010B50C46084603F048FE214690
:10247C0004480F22FFF720FF2046BDE8104003F070
:10248C006DBE00BFBC7E000810B5074C216811B1B1
:10249C00064805F006FA4FF0FF31054802F012FD30
:1024AC002060053010BD00BFB40300202C23002099
:1024BC003C23002038B5094C094D2046294605F02F
:1024CC00F0F9204605F1880105F0EBF92046BDE84E
:1024DC0038400022034900F035BA00BF2C230020FD
:1024EC00B80300203C2300200A2838B50446064DCA
:1024FC0003D10D21286804F046F82868E1B204F0F5
:10250C0042F8204638BD00BFE4040020F8B50D4663
:10251C00134E04460821306804F035F837464DB99F
:10252C003068202104F02FF830680821BDE8F8400D
:10253C0004F029B80B4803F0D1FC2544A5423868B7
:10254C0007D1202104F01FF8BDE8F840064803F03D
:10255C00C5BC617804F8011B04F015F8EEE700BF68
:10256C00E4040020EA810008EE8100082DE9F04F18
:10257C00DFF8EC82B14FC14685B0D8F80000436853
:10258C005B6C1BB3984708B3D8F8000043681B6C0E
:10259C00E3B19847D0B1D8F8000043685B6B002BCF
:1025AC00EBD098470028E8D0D8F8004063689B69C6
:1025BC00002B00F07281012220460DF10F0198478B
:1025CC00002880F26A81204603F0D8FF05B0BDE8F0
:1025DC00F08F08212846019303F0D8FF0022019BBD
:1025EC00CBF80030964B1A60C7E7BFF35B8F2B68B4
:1025FC00BFF35B8F1A0740F18281A4F13003092BE2
:10260C0016D8BFF35B8F2B680A2013F0100FBFF3A3
:10261C005B8F06D08A4B1A6800FB0244303C1C606E
:10262C00ABE788490B6800FB0344303C0C60A4E723
:10263C003B2C18D0BFF35B8F56E8003F23F0080308
:10264C0046E80032002AF7D1BFF35B8FBFF35B8FF4
:10265C0056E8003F23F0100346E80032002AF7D179
:10266C00BFF35B8F4BE11021304603F08FFFC306A5
:10267C00E0D482E77E2C44D0BFF35B8F56E8003F5A
:10268C0023F0020346E80032002AF7D1BFF35B8F38
:10269C0073E76D486B4A037811688B42ECD36B4D32
:1026AC00CCB22A781B1B2244037069482A7003F0B1
:1026BC0015FCE1E76548634B027819688A42DBD365
:1026CC00CBB2D21A0270604A10780344137061487E
:1026DC00EDE75D4C21780029CED05D4803F0FEFB80
:1026EC005A4A137821780B44137000232370C3E7E4
:1026FC00564C21780029BFD0564803F0EFFB524AC4
:10270C00EFE7524C2378002BB6D00121514803F04F
:10271C00E5FB4D4B217818780AF1050A0139C9B24D
:10272C0050442170FFF7F2FEA6E7BFF35B8F55E82C
:10273C00006F26F0010345E80032002AF7D1BFF301
:10274C005B8F16F001069DF80F400BD05B2C7FF4CD
:10275C0014AF0221284603F019FF0421284603F088
:10276C0015FF0AE7A4F120035E2B4FD90D2C2FD0B7
:10277C0017D8082C1AD0092C7FF4FFAE364B1B68E7
:10278C00002B3FF4FAAE314A1278002A7FF4F5AEF2
:10279C002D4C3868217805309847237818442070E0
:1027AC00EBE61B2C12D07F2C7FF4E7AE264A137875
:1027BC00002B3FF4E2AE013BDBB213703868234AC6
:1027CC00053311781844FFF7A1FED6E60121C5E7C1
:1027DC00DFF874A01D4D9AF800103B682A780B4462
:1027EC0013445E712146D9F8000003F0CCFE0A2197
:1027FC00D9F8000003F0C7FE184B396818688AF83E
:10280C0000602E7005F04DF83E60B6E60F4A0E4B98
:10281C00157893F800A005EB0A027E2A3FF7ADAEBF
:10282C003E680AF101022146D9F800001A7003F043
:10283C00AAFE06EB0A03ADB95C719EE6D404002037
:10284C00CC040020C8040020250900202609002003
:10285C00F2810008F8810008D8040020E004002070
:10286C00E404002093F805B00AF1060A30485C71C4
:10287C00564403F033FB013DEDB2FF2D03D12D483F
:10288C0003F02CFB79E65946D9F8000003F07BFEE7
:10289C00337806F801BB9B46EDE7396839B9264B0E
:1028AC00186802F00FFB386000283FF48FAEBFF3BE
:1028BC005B8F224D2B682E4613F0020FBFF35B8FFC
:1028CC003FF433AF9DF80F40D7F800A0BFF35B8FF8
:1028DC0056E8003F23F0040246E800210029F7D116
:1028EC005907BFF35B8F7FF580AEA4F13003092B42
:1028FC00DFF84CB07FF66DAE0123CBF80030482CDE
:10290C003FF6B8AE422C7FF6B7AE433C052C3FF6F3
:10291C00B3AE01A353F824F0C12600089F2600088B
:10292C0085260008FD26000885260008DF260008FD
:10293C00EA810008EE810008D0040020DC040020AD
:10294C00C8040020184B13B51860184B184C1960AC
:10295C00184B20681A6003F011FE206843681B6A4C
:10296C0003B198472268536823B19B6C13B110468E
:10297C0011499847206843685B6B2BB92068436802
:10298C009B6A73B902B010BD98470028F6D0206836
:10299C0043689B69002BEDD001220DF1070198478C
:1029AC00E8E79847EEE700BFD0040020E0040020E1
:1029BC00E4040020D80400207925000810B5044C4C
:1029CC00204601F0AFFA2046BDE81040FEF798BE55
:1029DC00F524000808B5044801F0E6FF034B186025
:1029EC00FFF7ECFF002008BDD2810008E4040020B2
:1029FC002DE9F84304460D464FF0010896680B4F3D
:102A0C0006F10409AC4201DBBDE8F8837A6908FAE7
:102A1C0004F333EA020207D17B6156F834301BB160
:102A2C00204659F8341098470134EBE70004014074
:102A3C001F2808B502DD6FF0220008BD0123074AEC
:102A4C00834011680F2843EA01031360F3DC044B45
:102A5C00185600F067FA0020EFE700BF00040140B1
:102A6C00098200081F2807DC0122044902FA00F041
:102A7C000B6823EA00000860704700BF00040140A7
:102A8C00CA0710B507D51F2805DC0123084A834067
:102A9C009468234393608B0708D51F2806DC012319
:102AAC00034A03FA00F0D1680843D06010BD00BFA0
:102ABC00000401400146074830B5846854F83100E1
:102ACC0004EBC10518B944F831206B6030BD6FF0D0
:102ADC000F00FBE748220020044B9A68002302EB0E
:102AEC00C00142F830304B60704700BF48220020D4
:102AFC00086884B002280DD0032816D0F8B9114A02
:102B0C004B68516919435161526913400193019B00
:102B1C0004B070470B4A4B68D1691943D161D26933
:102B2C0013400293029B0020F2E7064A4B6891691E
:102B3C0019439161926913400393039BF3E76FF080
:102B4C002200E5E7001002400868022809D003289B
:102B5C000FD0A8B90C4A4968536923EA01035361A1
:102B6C007047094A4968D36923EA0103D3610020FD
:102B7C007047054A4968936923EA01039361F6E7B4
:102B8C006FF02200704700BF001002400968074B2D
:102B9C0002291B6805D005D9032903D06FF0220048
:102BAC0070475B0800201360704700BF00220020B4
:102BBC0000234FF4806230B5194C87B0CDE9033255
:102BCC00059303F041FD01A803F038FD23689A0733
:102BDC0006D4236843F00103236023689B07FCD5CC
:102BEC00636823F003036360636823F0F00363609E
:102BFC00656815F00C05FBD12368294623F080731A
:102C0C00236001AA03AB074801F024FC236823F0DE
:102C1C000103236003F019FD284607B030BD00BF47
:102C2C000010024000127A0073B5044606090D46E6
:102C3C00104612B9104801F0B7FE032300930F4B56
:102C4C0053F826300193013302D16FF0040011E0E8
:102C5C00436869461B68984703460028F5D1201144
:102C6C00800200F180402A4604F00F0100F5843008
:102C7C0003F0F8FE02B070BD19820008CC7E00088B
:102C8C00F8B504460D46094801F08EFE00260746AD
:102C9C00AE4204F1080400D1F8BD3A4654F8041CC5
:102CAC0014F8080CFFF7C0FF0136F1E71982000891
:102CBC000B4B10B59A681968986811F4803F094B52
:102CCC00094901D1824205D21A680C6822441A6063
:102CDC00034A12681B680A681344181A10BD00BF17
:102CEC0010E000E0740500207005002008B5FFF727
:102CFC00DFFF0C4B0C4A1868116808441060002266
:102D0C001A604FF4E153094A1168401AB0FBF3F012
:102D1C0003FB0013136002F0DBFDBDE8084000F07C
:102D2C00A5B800BF740500206C05002068050020C4
:102D3C001022094B002083F8232041F61F42074B39
:102D4C001A60074B1860074B5A6098601A6842F07B
:102D5C0007021A60704700BF00ED00E0700500200C
:102D6C007405002010E000E070B504462A4D51B106
:102D7C00431C0ED1294A136823F0010313604FF052
:102D8C007F432B6070BD40F61913B0F1FF3F08BFB5
:102D9C001C464FF01003EFF3118683F31188BFF339
:102DAC006F8FFFF785FF1E4B1A68104400221860C6
:102DBC001C4B1A601C4B1B68C21A0DD54FF4806358
:102DCC002B602B68154A013B53600023936086F3FC
:102DDC001188BFF36F8FD5E740F61911013C24EA37
:102DEC00E4748C42A8BF0C464FF4E15102F5E0525A
:102DFC001F3201FB0424B4FBF1F4181A01FB040488
:102E0C00B4F5806F04D9094B9C42D9D82C60D8E713
:102E1C004FF48064FAE700BF7005002010E000E07A
:102E2C006C050020740500206805002020DFFF00E1
:102E3C0010B54FF01003EFF3118483F31188BFF337
:102E4C006F8FFFF735FF074B074A1B6812689B1AF9
:102E5C00034484F31188BFF36F8F4FF4E150B3FB3D
:102E6C00F0F010BD6C050020680500200448816856
:102E7C00006A884203D003494FF080520A607047C1
:102E8C00A408002004ED00E0094A0A499368096887
:102E9C00D865196608494B6843F080534B60002392
:102EAC0083F31188BFF36F8F9368186E704700BF60
:102EBC00A4080020F87F000800ED00E00F498A68A4
:102ECC004FF028001044EFF3098C80E8F01F10201D
:102EDC0080F31188BFF36F8F094F4FF000660A6AB9
:102EEC008A603E60D06D0023D36580F3118802F1B7
:102EFC00280090E8F01F8CF309887047A408002084
:102F0C0004ED00E01EF0040F0CBFEFF30880EFF3AC
:102F1C000980816911F8021C0229FFD001B503F068
:102F2C0097FB01BD43B2002B08DB012200F01F0010
:102F3C0002FA00F0024A5B0942F82300704700BF16
:102F4C0000E100E043B2002B01F10101ACBF03F141
:102F5C006043064B4FEA0111C9B2ABBF03F56143A5
:102F6C0000F00F0083F800131954704714ED00E0C3
:102F7C0073B51E460A9B05460093099B8C1804F0FA
:102F8C008CFD0B4BA4F1200222F0070223F001036D
:102F9C009361069B16605360079B9360089BD360FC
:102FAC004FF08073D3610023AA64EB6502B070BD4F
:102FBC00035F00081144084A21F00701906018468D
:102FCC0081F30988002163B681F31188BFF36F8FF9
:102FDC000022002302F08FFFA408002001491022D8
:102FEC000A60704710ED00E0404080F3118830BF5C
:102FFC00704700BFEFF30880EFF30981724601B50B
:10300C0000F09AF901BD00BF73B506460C4601B33A
:10301C00134B144D1448ED1AED08AD0145F00105A4
:10302C00ADF80050D1E90123096802F0EEFFADF8CC
:10303C000050D4E90423E1680C4802F0E6FF2A466C
:10304C00E1690B4802F0B4FF2A46A169094802F075
:10305C00AFFF2146304602B0BDE8704001F0E2BC43
:10306C00447E00085C7E00082C8200085B8200080D
:10307C008A8200089982000830BFFFF7FDBF00BFAD
:10308C0008B5094B094A23F0604323F07F03936092
:10309C00BFF34F8FBFF36F8F01F01CFD01F024FDC8
:1030AC0000F01EFA01F05EFD0010000800ED00E0DB
:1030BC0001B5EFF30580A0F110004FEAC000044900
:1030CC00014409C99847BDE801400249084700007E
:1030DC00207C0008792E0008102080F31188084805
:1030EC004FF40061401880F30988EFF3148002213B
:1030FC00084380F31488BFF36F8FFFF7C1FF000004
:10310C002815002070B5234B234C244DE41AE408F9
:10311C00A40144F001063146214802F03CFFAA6AA2
:10312C00930103D531461F4802F035FFAB6ADD0130
:10313C0004D51D4844F0010102F02DFF174DAA6A79
:10314C00100304D5194844F0010102F024FFAB6AC6
:10315C00590304D5164844F0010102F01CFF0F4D31
:10316C00AA6A920304D5134844F0010102F013FF3C
:10317C00AB6ADB0304D5104844F0010102F00BFFED
:10318C00064A0020936A6FEA03436FEA1343936283
:10319C0070BD00BF447E00085C7E000800ED00E0BE
:1031AC00C7820008DF820008F28200080C83000846
:1031BC002A8300084F830008698300082DE9F04139
:1031CC00224B234C234DE41AE408A40144F00108DB
:1031DC0007460E462048414602F0DDFEAA6AD30699
:1031EC0003D541461D4802F0D6FEAB6A180704D53C
:1031FC001B4844F0010102F0CEFE164DAB6A990754
:10320C0012D544F001084146164802F0C4FE696B21
:10321C00AB6A1A0608D54246134802F0C9FE1FB124
:10322C00AB6A23F08003AB620A4DAB6ADB0704D5B3
:10323C000E4844F0010102F0AEFE0020AB6AAB6A0E
:10324C0043F0FF03AB623070BDE8F081447E0008B0
:10325C005C7E000800ED00E094830008AA8300085F
:10326C00DD830008F0830008088400081E84000831
:10327C002DE9F041264B274C274DE41AE408A40114
:10328C0044F0010807460E462448414602F083FEEE
:10329C00AA6AD10403D54146214802F07CFEAB6AF0
:1032AC001A0504D51F4844F0010102F074FE1A4DB2
:1032BC00AB6A9B0512D544F0010841461A4802F04E
:1032CC006AFEA96BAB6A180408D54246174802F08F
:1032DC006FFE1FB1AB6A23F40043AB620E4DAA6ABA
:1032EC00520504D5124844F0010102F054FEAB6AB9
:1032FC00DB0504D50F4844F0010102F04CFE002020
:10330C00054A936A43F47F4393623070BDE8F081C1
:10331C00447E00085C7E000800ED00E03D8400085F
:10332C0053840008DD830008648400087D84000851
:10333C0092840008AD8400082DE9F041564B0F46ED
:10334C005E6800258AB0C6F3080485F31188BFF3C4
:10335C006F8F02F07F43B3F17F4F0DD102F00C035E
:10336C00082B0BD14D494E4B4E48C91AC90889013F
:10337C0041F0010102F00FFE2F4603E0120701D4C9
:10338C000746012500238DF80730E31E092B6AD868
:10339C00DFE803F005585C3C6969696969604FF0C6
:1033AC0000083F4B3D4E4048F61AF608B60146F071
:1033BC000106314602F0EFFD374B8DF80780DC6AD1
:1033CC0014F0020405D03146384802F0E4FD002424
:1033DC001FE0DB6A5B001CD53146354802F0DBFD93
:1033EC00344B1B782BB101200DF10701FFF7E6FEE2
:1033FC000EE0314B1B782BB101200DF10701FFF7CB
:10340C0037FF05E02D4B1B889BB213B1FFF77AFEFB
:10341C0004469DF8073093B92022394602A803F0E0
:10342C0056F9099B9DB3C3F3080222B96FEA5323E3
:10343C006FEA43230993204602A9FFF7E5FD0AB082
:10344C00BDE8F08100200DF10701CFE700200DF160
:10345C000701D4E71149124B1948C91AC908890147
:10346C0041F00101B1E70E4A0C4B16489B1ADB08E0
:10347C0016F4F87F4FEA8313134943F0010318BF86
:10348C000146A4F11002114802F0A6FD9FE723F4B7
:10349C00FF7323F00103CDE700ED00E05C7E000834
:1034AC00447E0008C5840008F084000807850008E5
:1034BC002885000828ED00E029ED00E02AED00E069
:1034CC0047850008928500087D850008AB850008BB
:1034DC00024A536943F010035361704700ED00E05A
:1034EC00002310210348C21801332B2B82F8001340
:1034FC00F9D1704700E100E038B504464FF01003F5
:10350C00EFF3118583F31188BFF36F8F01F08AFEFF
:10351C000A4B9B68A3420BD1094B5A68C2F30802B1
:10352C0012B92846FFF7B0FC5A6842F080525A6034
:10353C002846BDE8384004F0F6B900BFA4080020C6
:10354C0000ED00E02DE9F04F1E4600238946A1B0A6
:10355C0003900293134613F8010B069358B12528D8
:10356C0000F081804946039B9847013040F04B8422
:10357C004FF0FF330293029821B0BDE8F08F2B2D52
:10358C0065D05CD8202D65D0232D66D0002DF2D0CF
:10359C00CDF81880DDF81880A44818F8015B29468E
:1035AC0003F074F80028EAD12A2D63D156F8043BB5
:1035BC0098F80050002B0793BFBF5B420793012381
:1035CC000D93069B03F102082E2D78D198F800304C
:1035DC002A2B71D156F8044B08F1010818F8015B3D
:1035EC00294693482F4603F051F800286AD04346E9
:1035FC0013F8015B682F069307D1682D05D1482776
:10360C0008F1020398F801500693782D08D8572D2D
:10361C005CD8252D00F0F38300F2A280002DAAD0F7
:10362C0049462520039B98470130A1D0494628469E
:10363C00039B984701309BD0029B0233E5E32D2D71
:10364C000ED0302D089B08BF01230893A0E701235F
:10365C0009939DE701230C939AE74FF0010A97E732
:10366C0001230D9394E700239A4608930C93099336
:10367C000D938FE7A5F13003092B0790A4D80A22EC
:10368C00DDF8188018F8015BA5F13003092B9BD8E5
:10369C00079B02FB0355A5F13003CDE90683EFE749
:1036AC00904601FB0434303C424612F8013BA3F136
:1036BC0030000928F4D991E700240A21F4E74FF0EF
:1036CC00FF348DE70746CDF818809EE7A5F1580327
:1036DC00202BA5D801A252F823F000BF6F3D0008A3
:1036EC002D3600082D3600082D3600082D36000822
:1036FC002D3600082D3600082D3600082D36000812
:10370C002D3600082D3600084138000817390008FE
:10371C007937000879370008793700082D3600080A
:10372C00173900082D3600082D3600082D360008F4
:10373C002D360008FB3C00086F3D0008253D0008B5
:10374C002D3600082D360008473D00082D360008A0
:10375C006F3D00082D3600082D3600086F3D00081F
:10376C00A5F14503DBB2022B3FF65AAF073626F024
:10377C0007031946F1E80223D80240EA5250D60258
:10378C0020F00040002A01910496C3F30A510590E1
:10379C0073F10003DDE90467CDE9146780F2E5807D
:1037AC002D238DF864300DF1650740F2FF739942BB
:1037BC0040F0F680DDE904120A43A5F1410507F15A
:1037CC00030340F0E280192D00F2D98049223A70AF
:1037DC004E227A7046220024A246A34619AEBA7035
:1037EC00FC709B1B099A002A40F07E820C9A002ADE
:1037FC0040F07A829DF86480A8F12D02D2F1000885
:10380C0048EB02080BEB0A0633441E1920AB434469
:10381C0013F81C3C303B092B00F2FF82089B002B59
:10382C0000F0FE82079B19AF9B1B14E0BE850008BD
:10383C00C48500084FF0000832464446012652F871
:10384C00043B01928DF8643019AF04EB080300249B
:10385C00A246A3469B1B23EAE3739A190892079A84
:10386C009919551A0D9A12B9002D00F3EE8207EB37
:10387C000802BA4240F0EB82013B80F0F682A6EBE4
:10388C000806BBF1000F10D0387807EB0608A0F142
:10389C003003092BA8EB070640F2F282D846B8F1A8
:1038AC00010880F0F682A6EB0B06BAF1000F16D0D9
:1038BC0007EB060817F801BB49465846039B984787
:1038CC0001303FF455AEBBF12E0FA8EB0706F1D13A
:1038DC00D046B8F1000F00F3E582A6EB0A0694B1CE
:1038EC00387807EB0608A0F13003092BA8EB070684
:1038FC0040F2E3822E2800F0E082A046B8F1000FDF
:10390C0000F3E482361B3E44F3E23568331D002D90
:10391C0001931CDA2D2369428DF864300DF1650694
:10392C0030460A2202F021FF099B064419A8361AD8
:10393C00002B40F06D820C9B002B40F069824FEA0B
:10394C00D578002C80DA0024A246A34666E7099BB2
:10395C0023B12B2329468DF86430DFE70C9B0BB188
:10396C002023F7E7294619AEDAE7099B0BB12B2385
:10397C0017E70C9B0BB1202313E719AF15E769224E
:10398C003A706E227A70662225E7192D99BF4E2265
:10399C0041216E22612194BF3A703A7079701AE716
:1039AC00049B05980B430E93CB170343462D0F93A3
:1039BC0008BF6625DDE90E23134300F007810029BB
:1039CC0000F09F800026159BA1F2FE3843F00043C7
:1039DC00159318F1020FC0F2A880B8F1000F00F394
:1039EC00D48014A808F1010802F0E3FEB8F1040F2A
:1039FC00F7D1002C05F0DF03B8BF0624472B40F0AD
:103A0C00EE80F11C02DBB44280F2E380023DEDB2A9
:103A1C00002C00F0EA80013CBAF1000F40F0E58088
:103A2C00002CD4BF4FF000084FF00108662D40F079
:103A3C00DE8014EB060B4FF0660500F1DB80BBF16A
:103A4C00100FA8BF4FF0100B1023002213934FF050
:103A5C000063CDE91623BBF1010B80F0CE80149BE3
:103A6C00169A17999B18159A41EB0202CDE914325C
:103A7C0002F07043109300231193DDE910231343DC
:103A8C0006D014A802F0A6FE14A802F092FE01368D
:103A9C00662D40F0CF80002E40F3B680139B002B98
:103AAC0007DD13A914A802F0BDFE013E07F8010BB7
:103ABC00F4D1B3463B460026BAF1000F01D1002CDD
:103ACC0015DD2E2203F8012B002E00F0AE80002C09
:103ADC0040F3AD80C6F1000AA245A8BFA246A4EBF4
:103AEC000A04002C03DD139A002A00F39480B8F129
:103AFC00000F40F0B480002219AE1A709B1B71E6C7
:103B0C000139049BDB180493059B5B410593DDE9AC
:103B1C000423002A73F10003F2DADDE90423CDE972
:103B2C0014234FE714A802F044FEDDE9142C002303
:103B3C00CDF828C00B93DDE90A01002908BFB0F1CC
:103B4C00333F08F10108EDD205204FF0000EA2FB27
:103B5C00002300FB0C33CDE91423013E00214FF070
:103B6C00000C6FF0004B8C4508BF9B4506D2BEF194
:103B7C00000F3FF42EAFCDE914232AE792184FF033
:103B8C00010E5B4108F1FF38E8E714A802F022FEB1
:103B9C00DDE914104FF0000E08F1FF380136002358
:103BAC004FF0000C6FF0004B9C4508BF834506D2CC
:103BBC00BEF1000F3FF411AFCDE914100DE7491819
:103BCC004FF0010E404108F1FF38E8E70026B046FF
:103BDC0007E7A41BBAF1000F04D1662520E74FF0CC
:103BEC00000823E74FF0000823E74FF0000804F12A
:103BFC00010B24E74FF0000B26E716A802F0EAFDB4
:103C0C0016A802F0D6FD26E73B4630224FF0000BFB
:103C1C0003F8012B50E713A914A80A9302F002FE33
:103C2C000A9B013C03F8010B5BE7B24659E74FF0E6
:103C3C00000A5CE713A914A802F0F4FD30283870D0
:103C4C0018BF06F1FF36BAF1000F38D1002C36DC64
:103C5C007B1CB8F1000F44D04FF0000BDA4619462C
:103C6C0013F8012D302AFAD02E2A18BF0B46002447
:103C7C0005F0DF02452A7FF43EAF002EB4BF2D22A3
:103C8C002B221946B8BF7642632E01F8025B5A709C
:103C9C0008DD642096FBF0F200FB126602F13005A1
:103CAC00D91C9D700A2096FBF0F20B4600FB1266A5
:103CBC0002F13005303603F8025B4E701BE72E2202
:103CCC00BB1C7A70002CC4DD139A002AC1DD13A929
:103CDC0014A80A9302F0A6FD0A9B013C03F8010B01
:103CEC00F0E7C346C246C3E74FF001088AE5324607
:103CFC0052F8043B682F019206D06C2F09D0482F44
:103D0C0007D1029A1A7001E0029A1A80019E069A53
:103D1C0020E4029A1A60F9E747F63003ADF86430F4
:103D2C00334653F8041B10220DF16600019302F088
:103D3C001CFD4FF00208861C03E63346002CB8BF6E
:103D4C006FF00044002653F8047B0193B44203D176
:103D5C0026460024A04678E5BB5D002B5BD00136DF
:103D6C00F4E7331D6F2D3168019319D1BAF1000FAF
:103D7C0008D030238DF8643079B9884601268DF847
:103D8C006510DEE519AD2846082202F0EEFC19AEEE
:103D9C00AD1B2E184FF00008D3E50DF16505F2E7C9
:103DAC00752D05D10A2219A802F0DFFC0646F1E7B1
:103DBC00BAF1000F11D047F630030DF16607ADF8DC
:103DCC0064301022384602F0D0FC582D07D019AEC2
:103DDC00BF1B3E184FEA4A08B3E519AFF1E719AA21
:103DEC0012F8013BA3F16101192903D8203B02F819
:103DFC00013CF5E712F8013C002BF1D1E7E749460D
:103E0C002846FFF7B0BB029B0133CDE901637DE788
:103E1C004FF0010895E51C469CE7002319AF1CE503
:103E2C00089B19AF19E509934946039B202007927B
:103E3C0098470130079A099B3FF49AAB013AF2D2AA
:103E4C00029929440291154611E52A46F6E7099391
:103E5C004946039B17F8010B079298470130079AC4
:103E6C00099B7FF406ADFFF783BB07934946039B81
:103E7C00302098470130079B7FF4FEACFFF778BBEE
:103E8C004946039B984701303FF472AB17F8010F7A
:103E9C00FDE449463020039B984701307FF4FFAC8A
:103EAC00FFF766BB49463020039B9847013008F169
:103EBC00FF387FF40EADFFF75BBB4946039B984779
:103ECC0001303FF455AB17F8010F0CE54946302093
:103EDC00039B9847013008F1FF387FF40FADFFF7D3
:103EEC0047BB494617F8010B039B984701303FF439
:103EFC003FABF31B002BF4DC029B089A002D134400
:103F0C0002937FF703AF2C4606E049462020039B23
:103F1C00984701303FF42CAB013CF6D2029B2B446A
:103F2C000293F3E6014B1860704700BFEC210020B0
:103F3C000CB41FB509B90DF10300CDE9020107ABB3
:103F4C00069A02A905480193FFF7FCFA0022029B8E
:103F5C001A7005B05DF804EB02B070476568000894
:103F6C0008B502210248FEF78BFE002008BD00BFF9
:103F7C00F87E00080020084B82B09A6942F00102DA
:103F8C009A619A6902F001020192019A9A6922F0EF
:103F9C0001029A6102B0704700100240036810B52C
:103FAC009C68064800F000FD436804F108011B689A
:103FBC009847002818BF6FF0040010BD1982000844
:103FCC002DE9F3411E4603680746D3F8088006F036
:103FDC0080030B43144605D06FF02205284602B02F
:103FEC00BDE8F081304601A902F020FD054600280D
:103FFC00F4D103462146019AD8F8000002F032FDB4
:10400C0010B16FF00405E9E716F00205D8F80410BA
:10401C0042D03B462046384AFEF74CFD002867D17B
:10402C000F2CD8F8041022DC634203F0030304F0D5
:10403C00030258BF5A42043293000F229A4023467F
:10404C00002CB8BFE31C42EAA302D3B29B0003F1DD
:10405C00804303F580339D68100C25EA124590FAD5
:10406C00A0F2B2FA82F201FA02F22A439A60B20684
:10407C00B2D573060ED416F0040F14BF0121022121
:10408C002046FEF7FDFC2046FEF7D2FC0028B8D1F6
:10409C000025A3E70321F3E70F2C26DC624202F094
:1040AC00030204F0030358BF534204339A000F2356
:1040BC0093402246002CB8BFE21C43EAA2030F48EF
:1040CC00DAB2023250F82220180C02EA134390FAAA
:1040DC00A0F2B2FA82F2D3408B42D9D12046FEF73D
:1040EC00C1FC2046FEF7F8FC78E76FF01503F3E708
:1040FC006FF00F0572E700BF7F68000800000140F9
:10410C0003689B681B685A6942F001025A610A4AAB
:10411C00934207D0A2F57442934203D002F5806219
:10412C00934203D11A6942F040021A61DA6842F4F0
:10413C008072DA60704700BF0038014003689B68EA
:10414C001B685A6922F001025A610A4A934207D04D
:10415C00A2F57442934203D002F58062934203D1DC
:10416C001A6922F040021A61DA6822F48072DA606D
:10417C00704700BF00380140036837B50D46996899
:10418C00836851F80C4B586801AA4368DB68984760
:10419C0000280BDA0F49104B1048C91AC9088901BD
:1041AC0041F0010101F0F7FE03B030BD1923019974
:1041BC0064224B43A900B3FBF1F1B1FBF2F002FB1B
:1041CC0010131B013233B3FBF2F303EB00139BB25E
:1041DC00A360E9E7647E0008447E0008E0850008DF
:1041EC002DE9F84303680A799B68012A0D46866815
:1041FC001C6872D0022A0CBF4FF48061002195F824
:10420C00058095F80690B8F1020F98BF364BEF7900
:10421C0094BF33F818E04FF4005EB9F1040F0CBFF3
:10422C004FF480530023033A012F14BF4FF0000CBE
:10423C004FF4407C012A53D918F0FD0F50D0B9F13E
:10424C00020F4DD967B1294A944207D0A2F57442A6
:10425C00944203D002F58062944241D1012F3FD1A8
:10426C00E26822F40052E260E26802F4C062914219
:10427C001FBFE76827F4C0670F43E760226902F4A9
:10428C00405296451FBF216921F4405141EA0E016D
:10429C002161E268296802F4805293421FBFE268F0
:1042AC0022F480521A43E260636903F440739C4524
:1042BC001FBF636923F4407343EA0C0363613368E3
:1042CC00994203D0FFF758FF2B6833600020E36856
:1042DC0043F40053E360BDE8F8834FF4C0618EE70C
:1042EC006FF02200F7E700BF108000080038014093
:1042FC0003682DE9F0419F6805463E46D0F80880DA
:10430C0056F80C4B1A4800F04FFB436831461B68BB
:10431C00C8F804009847064638BBE36823F40053FA
:10432C00E360E36843F00C03E360E36823F4B05309
:10433C00E360236923F4405323613B7D33B12B6845
:10434C009B681A68536943F4407353612846D8F844
:10435C000010FFF711FFE368284643F40053E360B5
:10436C00BB6898473046BDE8F0816FF00406F9E76A
:10437C00198200080B4B984211D80B4B984294BFF2
:10438C0000200120094A136823F00703034313603C
:10439C00136803F007031B1A584258417047022058
:1043AC00F0E700BF006CDC0200366E01002002401A
:1043BC002DE9F041244C254E6368254FC3F30313BC
:1043CC0017F803803368054603FA08F880452DD3A7
:1043DC00236843F08073236023689B01FCD56368DA
:1043EC000A6823F0F00313436360636823F003034C
:1043FC0043F002036360636803F00C03082BFAD1EB
:10440C0063684A6823F4E0631343636063688A68F3
:10441C0023F460531343A84563600DD80B68C3F3B2
:10442C000313F85CC5403560012003E0FFF7A2FFE1
:10443C000128CDD0BDE8F0812846002DFAD0FFF739
:10444C0099FF0128F6D1E9E7001002400022002074
:10445C000E860008F0B4184C0F46194623689D01CF
:10446C0027D4D2E9005623689A030ED42368012F6F
:10447C000CBF43F4802323F480232360236843F48C
:10448C008033236023689B03FCD506F44033760C01
:10449C000136B0FBF6F0626822F47C121A432A4310
:1044AC00AD0C023542F4803268436260F0BCFFF719
:1044BC007FBF0020F0BC704700100240684620F01F
:1044CC0007018D46124B01B5DA6882B0D10615D5BD
:1044DC001A68D20612D51A680E480192019A5B68C6
:1044EC000193019B0C4B1A6822F001021A60596867
:1044FC00D0F8003289B2C1F500719847FEF7B6FCCE
:10450C00FEF7B4FC02B0BDE801408546704700BF21
:10451C0000480040B405002030000240074A084B18
:10452C000020D36053681B0C1B0443F400735360CE
:10453C00136843F001031360704700BF3000024062
:10454C00B405002070B5064615460C46D1B14FF0A7
:10455C00FF310D4800F004FC0C4BDE605968090C6F
:10456C000904214359601A6842F001021A60084894
:10457C00294601F045F800280CBF0024032402480A
:10458C0000F060FC204670BDC80700201C000240F3
:10459C00B8070020F8B5194A194B0E46D21AD208A2
:1045AC0092010546174F184C184942F0040278B195
:1045BC00174801F0FDFC2368164A43F00103C7F8C5
:1045CC0000622360D36843F40053D3600020F8BD2D
:1045DC00114801F0EDFC0F4AC7F80052D36823F4E0
:1045EC000053D360236802F5DC3223F0010323600F
:1045FC00D3691C3223F001031360E7E74C7E0008FB
:10460C00447E0008B4050020300002406886000893
:10461C00268600080048004037860008684620F0CF
:10462C0007018D460B4B01B51A68920609D520225D
:10463C005A60094A136823F001031360074800F01D
:10464C00B9FFFEF713FCFEF711FCBDE801408546EF
:10465C00704700BF000002401C000240B807002059
:10466C00F0B56B4C8FB01422002103A802F05AF85D
:10467C004FF40A720021204602F054F80122002166
:10468C0004F5017003F0FFF904F5057003F091F8DF
:10469C00604B0025DA69604E42F48022DA61DA69F7
:1046AC0003A902F480220292029A9A69304642F0DF
:1046BC0008029A619A69594F02F008020192019A14
:1046CC005A6942F001025A615B69554A03F00103D1
:1046DC000093009B0923CDE903230323CDE9053582
:1046EC0002F0C1FF04234F493046CDE9031303A95F
:1046FC0002F0B9FF4C4BA6F543461A68FC3E3A4013
:10470C001A601A68494822F440521A601A68143B1D
:10471C0022F020025A615A6922F040025A615A6909
:10472C0042F080025A61596921F44071596159690A
:10473C0021F440615961DE611C6299693C4C014075
:10474C0041F4007199611A683A4042F010021A6003
:10475C001A6822F440521A601A6822F020021A6079
:10476C001A6822F040021A601A6842F080021A603D
:10477C001A6822F440721A60196821F440611960B9
:10478C009E60DD605A68022102405A601A680C2053
:10479C0042F002021A602A46FEF7D4FB0C20FEF708
:1047AC00C1FB4FF4E133CDE908350C2308A92046B1
:1047BC00CDE90C35CDE90A5500F08EF823692A466F
:1047CC0023F4904323616369022123F02A0363617C
:1047DC006369272043F040036361636943F08003FE
:1047EC006361E36843F01003E360FEF7ABFB272043
:1047FC00FEF798FB0F4B10491048C91AC9088901DC
:10480C0041F0030101F0C7FB28460FB0F0BD00BF1B
:10481C00B405002000100240000C0140EFBFFFFF68
:10482C000400040408000804300002400000FFFFEC
:10483C0000480040447E00084C7E00084986000871
:10484C00034B044A5B68C3F30313D35CD840704733
:10485C00001002400E860008034B044A5B68C3F349
:10486C000223D35CD8407047001002401E8600081B
:10487C00034B044A5B68C3F3C223D35CD840704734
:10488C00001002401E860008094B5A68D20341BF33
:10489C005868084AC0F34040013048BFB2FBF0F002
:1048AC005B6858BF0448C3F38343023358437047D3
:1048BC000010024000127A0000093D00044B5B68B6
:1048CC0003F00C03082B01D1FFF7DEBF0148704742
:1048DC000010024000127A0030B5C36804469B04F5
:1048EC000D4685B002D5002005B030BD4B68C968B7
:1048FC00C2680B43296922F4B0520B4322F00C021C
:10490C001343C3600369AA6823F440531343036140
:10491C0043696A6923F4407313434361684602F0A8
:10492C001DFF134B9C4219D103990029DBD02A6837
:10493C00002AD8D019234B439200B3FBF2F3642224
:10494C00B3FBF2F102FB11331B013233B3FBF2F375
:10495C0003EB01139BB20120A360C5E7054B9C42FE
:10496C0001D10299E1E7044B9C42BCD1F9E700BFAD
:10497C0000380140004400400048004070B500265B
:10498C00084B53F82040013053F82050A54200D872
:10499C0070BD236820465B68984700B166600C3494
:1049AC00F4E700BFE47F0008104B70B505461E46C7
:1049BC000F4C9C4204D10E4CB44209D1002412E09D
:1049CC0062681AB122681268AA420CD00C34F0E763
:1049DC0063680BB90C34EFE723682846196801F0BB
:1049EC006AFE0028F6D1204670BD00BFD8220020F8
:1049FC000C22002010B50446FDF77EFA064B074941
:104A0C000748C91AC908890141F0010101F0C3FA2C
:104A1C00204602F0B3FE00BF447E00085C7E000816
:104A2C0077860008F7B505460F4600F0BDFD214C12
:104A3C00214B042DA4EB03044FEAD40498BF1F4A66
:104A4C004FEA841444F00103ADF8003006464FF0F1
:104A5C000003294694BF52F82520194A194801F041
:104A6C00D4FAFB69C3F3080323B1174844F00101DE
:104A7C0001F091FA304644F0010403F00CF8B0B1A7
:104A8C000278124B002A08BF1846FDF7CFF82346D0
:104A9C00024631460E4801F09FFA39462846FFF788
:104AAC00A9FF304603B0BDE8F040FEF725BD07482E
:104ABC00EBE700BF5C7E0008447E0008FC7F00082A
:104ACC00868600089C860008C48600089486000828
:104ADC00E58600080248034A0021121A01F022BEA2
:104AEC00000000202809002008B50648064A07499E
:104AFC00121A01F0ECFDBDE80840054A05490648CC
:104B0C0001F0E5BDC82100204C2300209C87000843
:104B1C00000000009C87000800000020012208B55E
:104B2C000B4B02201A70FFF729FF0A4A0A490B485F
:104B3C0001F0D4F90320FFF721FF00F005FEFCF78C
:104B4C0017FD074A137B23F00103137308BD00BF45
:104B5C00270900207881000847870008678700082C
:104B6C004008002080B5A0B0FCF7B8FF354B83F3AC
:104B7C000888354C00256369012743F40073636191
:104B8C00F02384F82230E57725766576A576636A7E
:104B9C002E4E43F4E0236362FEF79AFCFEF71EFAF6
:104BAC004FF0FF33A362E36207AB64222946184639
:104BBC0001F0B8FD264C8DF82970A0602846FFF74F
:104BCC00DDFE3846FFF7DAFE00F076FC214B26625C
:104BDC004FF48062CDE9047330461F4BCDE902558A
:104BEC00CDE900551D4900F051FD737B23F0040203
:104BFC0013F01B0F727304D1B36913B9304600F074
:104C0C002BFA174B012205930F23CDE90332002316
:104C1C00144D4FF480722846CDE9013312490093AC
:104C2C00124B00F033FD6B7B4FF4806223F00403D6
:104C3C006B730F4B0949C4E906330448064BE56016
:104C4C00FEF7B8F9281D002000ED00E04008002018
:104C5C00A40800208E870008294B0008281000208B
:104C6C0093870008DC07002028140020BD7B000877
:104C7C00BC08002070B500240A4B0B48834201D3BA
:104C8C00002070BD00211A699D685C61A94201D1A8
:104C9C001C33F3E75E6901311660DE685A613244F9
:104CAC00F4E700BF082300200823002010B51346AA
:104CBC000C464FF01002EFF3118182F31188BFF311
:104CCC006F8F42695AB12260136843618369013363
:104CDC008361002081F31188BFF36F8F0DE01BB946
:104CEC006FF00B002360F5E70246044800F060FB10
:104CFC0018B9034B9B685B69236010BD2809002021
:104D0C00A408002070B504460D464FF01003EFF3D5
:104D1C00118683F31188BFF36F8F02F071FE80B19F
:104D2C0000212A6801664261427BD20603D1836965
:104D3C000BB900F091F93146BDE87040074802F01C
:104D4C00E7BD2B6862691A602B686361A369013B3C
:104D5C00A36186F31188BFF36F8F70BD2809002003
:104D6C00F8B504460E464FF01003EFF3118783F3AA
:104D7C001188BFF36F8FC368304A5BB1806891684C
:104D8C00884215D0B6B987F31188BFF36F8F6FF0D7
:104D9C000F000CE0916891F90E100133E3609368F9
:104DAC002161A36087F31188BFF36F8F0020F8BDDA
:104DBC002169F2E790F90E3091F90E109942A8BFD3
:104DCC00194621EAE1718B422BDD00F033FB0546DD
:104DDC003346224639461A4800F0EAFA0028E6D053
:104DEC004FF01003EFF3118683F31188BFF36F8F2D
:104DFC00236821699C4207D033B193F90E30994254
:104E0C00A8BF194621EAE171A06890F90E309942C9
:104E1C0009D16DB131460A4802F07AFD6FF00A00F3
:104E2C00C5E70025D4E700F005FB0028F2D1F0E738
:104E3C0086F31188BFF36F8FF0E700BFA408002042
:104E4C002809002038B51D4B04469A68D37B013BDA
:104E5C00D373C368012B05D0013BC360BDE8384058
:104E6C0000F0DEB84FF01003EFF3118583F31188D7
:104E7C00BFF36F8F0169806890F90E30994201D0B1
:104E8C0000F0D8FA204602F0BBFDA06080B190F98A
:104E9C000E20226100220266427BD20603D1836976
:104EAC000BB900F0D9F82946054802F031FDD5E7D9
:104EBC00E06085F31188BFF36F8FCFE7A408002063
:104ECC002809002038B50B464FF01002EFF311857E
:104EDC0082F31188BFF36F8F046894B12368426822
:104EEC0023F003039442036008BF43600121204672
:104EFC0002F0CBFC044685F31188BFF36F8F20467C
:104F0C0038BD0029F7D000F108022946104600F000
:104F1C004FFA0028F3D1024B9B685C69EFE700BFA6
:104F2C00A408002010B5084C23685BB1FDF780FF86
:104F3C0003462068054A03440021BDE81040136174
:104F4C0002F0DDBD10BD00BFD8080020A408002071
:104F5C0010B54FF01003EFF3118483F31188BFF3F6
:104F6C006F8F0022074B1A610A235843064B1860B7
:104F7C00064B1960FFF7D6FF84F31188BFF36F8FD0
:104F8C0010BD00BFA4080020D8080020D4080020C1
:104F9C004FF01003EFF3118183F31188BFF36F8F80
:104FAC00044B9A68D37B013BD37381F31188BFF315
:104FBC006F8F7047A4080020094B03F12402824232
:104FCC0005D19B688B4202D14B7BDB0606D1D1E924
:104FDC00003213605A600023C1E90033704700BFF0
:104FEC00A408002038B50D4C024604F1240002F050
:104FFC00CDFC054600B9E568A3684AB95A7BD206D0
:10500C0006D1AA6922B9DA897F2A01D9236238BD6F
:10501C009D4201D0FFF786FF2562F8E7A408002027
:10502C0010B54FF01003EFF3118483F31188BFF325
:10503C006F8F084B00209A68D37B0133D373FFF733
:10504C00D1FF84F31188BFF36F8FBDE8104002F0DD
:10505C0076BC00BFA4080020F8B54FF01003EFF3A6
:10506C00118583F31188BFF36F8F164A114651F8DF
:10507C00243F946A8B4208BF0023002B38BF0023C7
:10508C00D3B190F90E7093F90E60B74203DB9C42DA
:10509C0012D01B68F4E75A68C0E9003210605860FF
:1050AC00437B43F0400343730020FFF79BFF85F3E2
:1050BC001188BFF36F8FF8BDC0E90014936A1860B4
:1050CC009062EDE7A40800200146F8B54FF01003FC
:1050DC00EFF3118483F31188BFF36F8F437B5A0670
:1050EC0002D51948FFF768FF184A104650F8243FBC
:1050FC00956A834208BF0023002B38BF0023EBB115
:10510C0091F90E7093F90E60B74203DB9D4215D0F6
:10511C001B68F4E75868C1E90030016059604B7BAB
:10512C00906843F040034B73431A58425841FFF7C1
:10513C0059FF84F31188BFF36F8FF8BDC1E90005E7
:10514C00936A19609162EAE7C8080020A40800205D
:10515C0038B5154A154B146801469868A0421C4690
:10516C0003D1BDE83840FFF7DDBE00251560104ABD
:10517C001268B2B1C2897F2A13D80E4A90F90E5028
:10518C00126895420DDB0C4A90420AD0826942B9F2
:10519C001A698A4202DCFFF797FFE2E7521A1A619A
:1051AC0038BD00232361FBE7D0080020A4080020B1
:1051BC00D8080020D4080020DC07002070B5044675
:1051CC00183002F076FC4FF01003EFF3118683F3E6
:1051DC001188BFF36F8F637B5A0607D521460F48A2
:1051EC00FFF7EAFE637B23F0400363730C4D637B94
:1051FC00A86843F010036373031B58425841FFF730
:10520C00F1FE86F31188BFF36F8FAB68A34203D115
:10521C00BDE8704002F093BB70BD00BFC808002011
:10522C00A4080020036D70B5044603B1984704F13F
:10523C00180002F03EFC4FF01003EFF3118683F3DD
:10524C001188BFF36F8F204602F030FB637B05465D
:10525C00C8B1590607D521461148FFF7ADFE637B4F
:10526C0023F0400363730F4B9868021B504250416C
:10527C00FFF7B8FE637B43F00803637386F3118872
:10528C00BFF36F8F70BD9B07F4D52146A068FFF765
:10529C0093FE637BA56023F002036373EAE700BF10
:1052AC00C8080020A4080020014610B54FF01003D8
:1052BC00EFF3118483F31188BFF36F8F437B5A068E
:1052CC0006D50948FFF778FE4B7B23F040034B7360
:1052DC00064B9868431A58425841FFF783FE84F3F3
:1052EC001188BFF36F8F10BDC8080020A4080020E0
:1052FC0070B504460D461646FFF7D6FF637B43F0A8
:10530C0002036373C5B12B68A5609D4208BF0023DF
:10531C00002B38BF0023EBB194F90E1093F90E203B
:10532C00914204DB6A689A4214D01B68F3E75A680E
:10533C00C4E9003214605C60731C12D00A2226EAA5
:10534C00E676724304F1180006490132BDE870405C
:10535C0000F07CBA6B68256063606B681C606C60E5
:10536C00EAE770BDAD79000870B506460E4D0F4CDE
:10537C00A868FFF7BDFFAB6830462360FDF784FDDE
:10538C004FF01002EFF3118382F31188BFF36F8F8C
:10539C002268A968914204BF0022226083F311881D
:1053AC00BFF36F8F70BD00BFA4080020D008002091
:1053BC0010B50C461146064A9068064A10601A460B
:1053CC00FFF796FF2046BDE81040FDF75DBD00BF1E
:1053DC00A4080020D0080020F8B5451C02F0A9FB59
:1053EC002C184FF01003EFF3118783F31188BFF3E0
:1053FC006F8F0D4E0D4BB0681860FFF755FFB068FE
:10540C000B492A46183000F021FAB2683846537B13
:10541C0043F010035373FDF737FD02F08AFB201A9B
:10542C0020EAE070F8BD00BFA4080020D0080020DE
:10543C00AD7900082DE9F04104464FF01003EFF36D
:10544C00118883F31188BFF36F8F02F02FFA074690
:10545C004DB260B3174E214606F12400FFF7ACFDA8
:10546C00736AB26A834208BF0023002B38BF002343
:10547C00A573B3B193F90E10A94203DC934210D07B
:10548C001B68F6E75A68C4E9003214605C600120BE
:10549C00FFF7A8FD88F31188BFF36F8F3846BDE87E
:1054AC00F081C4E90002B36A1C60B462EFE7A57333
:1054BC00F0E700BFA40800200021044B084603F1CC
:1054CC002402C3E90922FFF743BD00BFA408002052
:1054DC00F8B5244C244BA2689A4230D04FF01003FC
:1054EC00EFF3118583F31188BFF36F8FA16804F17B
:1054FC002400FFF761FD636AA268834208BF0023A2
:10550C00002B38BF0023A16A2BB392F90E7093F9CC
:10551C000E60B74203DB8B421DD01B68F4E7596861
:10552C00C2E900310A605A60537B012043F040030A
:10553C005373FFF757FD85F31188BFF36F8F4FF04F
:10554C001003EFF3118083F31188BFF36F8FBDE865
:10555C00F840FDF799BCC2E90001A36A1A60A26287
:10556C00E2E700BFA4080020DC070020431C10B5B4
:10557C00044605D10B4B986800F0C6F8204610BDC8
:10558C000A20444309D1FFF7A3FF2046E1170A2262
:10559C000023FBF7A5FD0446F0E72046FFF71CFFB0
:1055AC000446F2E7A4080020014B9868704700BF3E
:1055BC00A408002070B505464FF01003EFF31186D8
:1055CC0083F31188BFF36F8F02F01AFA044670B19F
:1055DC00437BDB0603D183690BB9FFF73DFD002349
:1055EC0023663146BDE87040044802F091B9D5E914
:1055FC0002329A4218BF0133AB60F2E7280900204F
:10560C0002460B464FF01000EFF3118180F3118826
:10561C00BFF36F8F906838B10138906081F31188B7
:10562C00BFF36F8F0020704733B981F31188BFF33C
:10563C006F8F6FF00F0070470148FFF7B9BE00BFC6
:10564C002809002010B54FF01002EFF3118482F3FB
:10565C001188BFF36F8F427B510704D484F31188F8
:10566C00BFF36F8F10BD22F0040112F01B0F4173BA
:10567C0003D183690BB9FFF7EFFC2146BDE810405D
:10568C00014802F045B900BF2809002030B587B0A9
:10569C000E9D044604950D9D03950C9D02950B9D46
:1056AC0001950A9D0095FDF763FC034B9B6803B1C4
:1056BC009B6DA36507B030BDA408002070B5002613
:1056CC0086B005960E9E0F9D04960D9E044603967D
:1056DC000C9E02960B9E01960A9E0096FFF7D6FF33
:1056EC006B1C03D02DB92046FFF7ACFF204606B04B
:1056FC0070BD0A226A430349013204F1180000F01C
:10570C00A5F8F3E7AD79000838B504464FF010035F
:10571C00EFF3118583F31188BFF36F8FFFF74EFD05
:10572C00074B9B68A34205D12946BDE83840054884
:10573C0002F0EEB885F31188BFF36F8F38BD00BF50
:10574C00A408002028090020F0B5204E204D374633
:10575C0087B0B54205F130040BD3FFF719FC0A25CD
:10576C001B4C1C4EBC4221D307B0BDE8F040FFF7E8
:10577C0057BC54F8043C059354F8103C049354F86B
:10578C00143C039354F8183C029354F81C3C0193BA
:10579C0054F8203C009354E90A2354E90C01FFF718
:1057AC0075FF54F8303CDD642546D2E7626A531C21
:1057BC0003D020681AB9FFF745FF3034D2E76A43AB
:1057CC0031460132183000F041F8F6E7082300208A
:1057DC00D8220020AD790008034B1B680BB9FDF7EC
:1057EC0027BB0020704700BFDC080020036840B1D5
:1057FC00074A5268904204D01BB19A6881680A44E7
:10580C009A60426813605A600023C0E90033704705
:10581C00042200200B4B10B51C689C4208BF0024CE
:10582C00FFF7DAFF54B1A368181A20EAE070064BB0
:10583C001B6913B19842A8BF184610BD6FF0004009
:10584C00F5E700BF04220020A408002070B5044630
:10585C001646C1604FF01003EFF3118583F31188E6
:10586C00BFF36F8FFFF7B8FF012EACBF801901306B
:10587C00164BA0601A689A4201D05E6832B95A6819
:10588C00236062605A6814605C600AE09068A168EA
:10589C00884215DD411A91605168C4E900210C6001
:1058AC0054601A689A4206D0944204D1FFF7B2FFB2
:1058BC000021FDF759FA85F31188BFF36F8F70BD86
:1058CC00091A9642A160DAD01268D7E704220020A8
:1058DC002DE9F0470646FFF73BFC4FF01003EFF3C2
:1058EC00118483F31188BFF36F8FDFF884801F4D11
:1058FC00C146DFF880A02E60DAF800002A68504517
:10590C00D8E9006705D020B18368934213DD9B1A58
:10591C008360B61847EBE277C9E9006700262E6072
:10592C00FFF778FF3146FDF71FFA84F31188BFF3B8
:10593C006F8FBDE8F087F61847EBE377D31A2B602F
:10594C0000238360C8E90067FFF750FF84F31188D8
:10595C00BFF36F8FC36898474FF01003EFF31184B8
:10596C0083F31188BFF36F8FC6E700BFDC080020FC
:10597C00000000200422002010B54FF01003EFF3BC
:10598C00118483F31188BFF36F8FFDF751FA064B27
:10599C00D3E90023121843F1000384F31188BFF3F9
:1059AC006F8F1046194610BD00000020026A38B5F2
:1059BC00002A044602DD0E49FFF748FF636A0133F3
:1059CC006362A3690BB12046984754F8105FA54257
:1059DC000DD065B1284601F082FF6B7BDB0604D14C
:1059EC00AB6913B92846FFF737FB00232B6638BD8C
:1059FC00B95900080A2313B504465A434B43009285
:105A0C00019302F056F8009B204623620023019A72
:105A1C000349636202B0BDE81040FFF717BF00BF37
:105A2C00B959000838B5074C074DAC4201D30020DA
:105A3C0038BD04F114032046C4E9053300F0ACF87A
:105A4C001C34F2E708230020082300202DE9F04F36
:105A5C001C1E07460D46924685B03ADD02F06DF8E5
:105A6C0010EB04081C4B1D4EFB1A9B105E4307F1F8
:105A7C00140BF6B203AB02AA51463846009500F05F
:105A8C00D1F8029B039A1B0203F4706343EA0233BE
:105A9C00F2B213436B60C8B1C4B110F10C0F15D145
:105AAC004FF01003EFF3118083F31188BFF36F8F66
:105ABC0022465946FFF758FC631CDBD002F03DF838
:105ACC00A8EB0004002CD5DC6FF00A0005B0BDE893
:105ADC00F08F4FF00008C5E708230020B76DDBB648
:105AEC0070B51C24037802685C4341780F4E120B8E
:105AFC0001F00F01301900F04DF94FF01003EFF3E6
:105B0C00118583F31188BFF36F8F04F114003044B7
:105B1C0001F0A3FF28B12946BDE87040044801F00C
:105B2C00F7BE85F31188BFF36F8F70BD082300207B
:105B3C0028090020034B01469B68986D08B102F0C0
:105B4C004BB87047A408002070B50D460C24C668ED
:105B5C0090F90B004C43A842104606EB0401B8BF69
:105B6C003159002AB8BF02F11F00401101EB80012E
:105B7C00196002F01F0070BD4FF01003EFF311809D
:105B8C0083F31188BFF36F8F7047C30703D581F37D
:105B9C001188BFF36F8F7047FF232DE9F04F4668D4
:105BAC00C372324600234FF00C090789016806FBCB
:105BBC0007FC90F80A806144984505DC00231946DF
:105BCC008F4220DCBDE8F08FBCFBF2F509FB03FE35
:105BDC00D0F80CA0202D0AEB0E0404F1040BC4E940
:105BEC0001BB05D8C372920822F003020133E3E72C
:105BFC0015F11F0448BF05F13E0464114AF80E105C
:105C0C0001EB8401EFE7C268056802F1040CEC18A3
:105C1C0045F803C0956801316560956833442C6084
:105C2C009460CDE72DE9F04F87B0847A00AFC7E9D7
:105C3C000132A300073303F4FF63ADEB030DEA4617
:105C4C0053464268054643F804290022944202F167
:105C5C00FF3909DD22B11868800820F00300586074
:105C6C0053F8040F884208D2B9F1FF3F07D1002343
:105C7C003A6C13606FF00B002EE00132E6E72E7CDD
:105C8C0016F0010602D0FFF777FF06460C23C84634
:105C9C00EA6803FB09231A4652F8044F94421FD1B9
:105CAC0008F1FF38B8F1FF3FA3F10C03F3D1002446
:105CBC003146287CFFF769FF3B6C1C60002CD9D067
:105CCC00BB680020C3F800902B68E41A5AF82930FE
:105CDC0094FBF3F47B681C601C37BD46BDE8F08F69
:105CEC00D4E9003213605A600023C4E900332968F8
:105CFC005AF82800621A92FBF0F2414607F114039D
:105D0C002846FFF721FF01219B46D7F814C001FA62
:105D1C0000F0DCF8002039600243CCF80020C845C4
:105D2C00C6DA2A685AF82830A21A92FBF3F208F164
:105D3C0001085B46414692002846FFF705FF7A6949
:105D4C003B68E96803FA00F01368034313600C2303
:105D5C00032203FB08115AF8280001F1040E231842
:105D6C00FA608A68C3F800E05A608A681360FA68BF
:105D7C008B60013A0344FA60F3D13146287CFFF77B
:105D8C0004FF2B7CDB0703D5FFF7F6FE0646C6E7C0
:105D9C00FE68C4E72DE9F04F85B0837A00AF9B0015
:105DAC00073303F4FF63ADEB030DE8464368054688
:105DBC000E4640460121C8F800308E4212D22C7C8F
:105DCC0014F0010402D0FFF7D7FE0446002E11DABE
:105DDC004FF0FF342146287CFFF7D7FE1437BD4621
:105DEC00BDE8F08F036801319B0823F0030340F8F2
:105DFC00043FE2E758F82630314603FB02FA7B6099
:105E0C00284607F10C03D5F800B0FFF79DFE0123DF
:105E1C00F96803FA00F00B680BEB0A0923EA00039C
:105E2C000B600C21EB6801FB0633191D4BF80A10B3
:105E3C009968C9F804109968C1F80090C3F80890E3
:105E4C002146287CFFF7A1FE2C7C14F0010402D023
:105E5C00FFF792FE0446002EBCD007F10C0331462E
:105E6C002846FFF771FEFB6800281B68B8BF03309B
:105E7C0020F0030023FA00F010F00F03AAD19E4685
:105E8C0022F0030B78680BEB0301414328680133C4
:105E9C0000EB010CDCF804A050F80190042BCAF8BC
:105EAC000090C9F804A040F801E0CCF804E0E9D176
:105EBC00002AB8BF0332013E921087E700207047DA
:105ECC0070B50D4604464520A04729465220A047F0
:105EDC0029462346BDE87040522018470FB407B539
:105EEC0004A951F8040B0191FBF7A4FD03B05DF874
:105EFC0004EB04B07047044608B5084611461A4630
:105F0C00A047FFF751FBFDF7F7FA70470023C0E9F4
:105F1C0000337047036823B90160002341600B60B4
:105F2C00704743681960F8E70068704703460068DB
:105F3C0008B102681A60704708B5FCF73DF818B153
:105F4C00012343600023038108BD08B501F0F5FD72
:105F5C0008BD00207047F0B5054600200127034618
:105F6C00024615F8014B0CB18B4200D3F0BD252C29
:105F7C0002D182F00102F4E7002AF2D044F02006AC
:105F8C00613E192EEDD8732C04BF07FA03F21043AF
:105F9C0001330022E5E738B505460C46FFF7CCFF88
:105FAC0028B121460561BDE83840FBF727BF38BD55
:105FBC0070B506460D461446FFF7BEFF58B10121D9
:105FCC00427A066161F30712427221464561BDE8CF
:105FDC007040FBF713BF70BD2DE9F04180460F46B2
:105FEC0016461D46FFF7A8FF68B10222437A2946E0
:105FFC0062F307134372C0E90576C0F81080BDE860
:10600C00F041FBF7FBBEBDE8F0812DE9F84380467B
:10601C000F4616461D46BDF82090FFF78DFF70B158
:10602C000322437A494662F307134372C0E90576AB
:10603C00C0F81080C561BDE8F843FBF7DFBEBDE8D2
:10604C00F88310B51C4600F09EF820B12146BDE83F
:10605C001040FBF7D3BE10BD2DE9F8431C46038955
:10606C000E461146C3F38D02A2429DF8207003D850
:10607C0000230B60BDE8F8830B682344934284BF74
:10608C00131B0B600C2AD1F8009027D9072CD0F8E1
:10609C0014802AD8082218304A4528BF4A46204482
:1060AC001546FFB1314600F012FBA9EB05092E4451
:1060BC00B9F1000FDED0C4F11C054D4528BF4D468B
:1060CC00201D2A464044BFB1314600F000FB00249D
:1060DC00D8F80080A9EB05092E44E9E74FF0000839
:1060EC001430D9E701463046DDE7083C1B2CDFD9DC
:1060FC00D8F800801C3CF9E701463046E5E7BFF3D1
:10610C005B8F043050E8003F013340E80032002A36
:10611C00F8D1BFF35B8F7047407A00097047437A20
:10612C00B1EB131F4FEA131216D2032A03D800EB5C
:10613C00810148697047012903D800EB8101886906
:10614C00704743690239062903D803EB810148687B
:10615C0070471B680739F6E7002070470346BFF30A
:10616C005B8F021D52E8001F013942E8001CBCF194
:10617C00000FF7D1BFF35B8F5B680BB9FBF72EBF3A
:10618C007047006970472DE9F84343F6FF75954257
:10619C0080460E46174628BF1546FBF70DFF0446F2
:1061AC0080B3012302894360AB0043F0010302F08A
:1061BC00020213430C2FC0F81080038100F1140865
:1061CC0017D908223146183000F081FA002399467D
:1061DC00227A636142F0020222720836083D8DB1C8
:1061EC00FBF7EAFE074680B92046FBF7F7FE3C4674
:1061FC0008E02A463146404600F069FA237A6FF3EC
:10620C00410323722046BDE8F8831C2D2F4628BF7E
:10621C001C27C8F800003146C0F8009080463A466A
:10622C00043000F054FA3E44ED1BD8E713B50024BB
:10623C000094FFF711FF02B010BDF8B506460D46ED
:10624C0014461F46214628463A46B047241A0544B0
:10625C00F8D1F8BD2DE9F0478EB00EAF80460D4653
:10626C00FFF78FFF06464046FFF756FF4FF0000939
:10627C0082468300073323F00703ADEB030D0EAC0E
:10628C00D14516D14046FFF747FF0F281ED8DFE84F
:10629C0010F01900200026002D00360041004E00A1
:1062AC005D006E0081009600AD00C600E100FE00AE
:1062BC001D0149464046FFF732FF44F8290009F119
:1062CC000109DDE731462846FBF7CAFEBD46BDE8AD
:1062DC00F087314628462268FBF7C2FEF6E73146C6
:1062EC00D4E900232846FBF7BBFEEFE7A368314651
:1062FC0000932846D4E90023FBF7B2FEE6E7E368F7
:10630C0031460193A36828460093D4E90023FBF798
:10631C00A7FEDBE7236931460293E3682846019325
:10632C00A3680093D4E90023FBF79AFECEE76369D8
:10633C0031460393236928460293E3680193A368CB
:10634C000093D4E90023FBF78BFEBFE7A36931462A
:10635C00049363692846039323690293E3680193CA
:10636C00A3680093D4E90023FBF77AFEAEE7E36958
:10637C0031460593A3692846049363690393236903
:10638C000293E3680193A3680093D4E90023FBF71D
:10639C0067FE9BE7236A31460693E369284605931B
:1063AC00A36904936369039323690293E3680193DC
:1063BC00A3680093D4E90023FBF752FE86E7636AD7
:1063CC0031460793236A28460693E3690593A3692C
:1063DC0004936369039323690293E3680193A368AD
:1063EC000093D4E90023FBF73BFE6FE7A36A314629
:1063FC000893636A28460793236A0693E369059317
:10640C00A36904936369039323690293E36801937B
:10641C00A3680093D4E90023FBF722FE56E7E36A56
:10642C0031460993A36A28460893636A0793236A43
:10643C000693E3690593A369049363690393236942
:10644C000293E3680193A3680093D4E90023FBF75C
:10645C0007FE3BE7236B31460A93E36A2846099310
:10646C00A36A0893636A0793236A0693E369059307
:10647C00A36904936369039323690293E36801930B
:10648C00A3680093D4E90023FBF7EAFD1EE7636BD6
:10649C0031460B93236B28460A93E36A0993A36A4C
:1064AC000893636A0793236A0693E3690593A369C8
:1064BC0004936369039323690293E3680193A368CC
:1064CC000093D4E90023FBF7CBFDFFE6A36B314629
:1064DC000C93636B28460B93236B0A93E36A099323
:1064EC00A36A0893636A0793236A0693E369059387
:1064FC00A36904936369039323690293E36801938B
:10650C00A3680093D4E90023FBF7AAFDDEE64268FA
:10651C0010B50CCA044681680068FFF78EFE002295
:10652C0063681A6010BD38B54B6805461A68CB68AD
:10653C000C469A4202D10846FFF7E9FF6368BFF3A5
:10654C005B8F53E8002F511C43E800100028F8D152
:10655C00BFF35B8FA36800209D5438BDF8B50D4682
:10656C00164604464718BC4201D12846F8BD14F81B
:10657C00011B736830465B689847F4E74368DB6A35
:10658C0003B11847704743685B6818470346BFF36D
:10659C005B8F53E8000F40EA010243E8002CBCF18A
:1065AC00000FF6D1BFF35B8F70470246012100202C
:1065BC00FCF71EBA024602210120FCF719BA02466A
:1065CC0003210220FCF714BA024604210320FCF735
:1065DC000FBA024605210420FCF70ABA02460A212A
:1065EC000520FCF705BA024610210A20FCF700BA78
:1065FC00002208B511460620FCF7A4FC0022072057
:10660C001146FCF79FFC002208201146FCF79AFC6F
:10661C00002209201146FCF795FC00220A201146A5
:10662C00FCF790FC002217201146FCF78BFC002293
:10663C0028201146FCF786FC002008BD4FF4E01220
:10664C000023C0E90023704770477047FCF7D2BCA9
:10665C0001460068FCF7D8BC08B5FCF70DFDBDE899
:10666C000840FCF703BC70B5054601392C4642B115
:10667C0011F8013F561E2BB92A4404F8013BA242E3
:10668C00FBD170BD324605F8013BEFE70346C9B2BA
:10669C001A7818468A4203F1010304D0002AF7D174
:1066AC00002918BF00207047034600201A5C02B96D
:1066BC0070470130FAE7431E013913F8012F11F826
:1066CC00010F824201D1002AF7D1101A7047F0B5A0
:1066DC0081EA0004A50703460BD0013B0A44914212
:1066EC001BD1F0BD002AFCD011F8014B013A03F884
:1066FC00014B9C07F6D122F003041D1F96080F19BD
:10670C00B94205D16FF00305234405FB0622E4E7EB
:10671C0051F804CB45F804CFF2E711F8014B03F81C
:10672C00014FDCE7034670B5C9B29C0711D141EAB1
:10673C00012422F0030644EA04451E449408B342A3
:10674C000DD16FF0030505FB04221A44934209D1C5
:10675C0070BD002AFCD003F8011B013AE5E743F8B1
:10676C00045BECE703F8011BF0E7F0B503461446B5
:10677C000246B1FBF4F004FB1015092D0F468CBF3B
:10678C00272600260146104630353544A74200F82E
:10679C00015B05D200210170C01A9A4202D8F0BDEB
:1067AC000246E6E711781C7802F8014903F8011B50
:1067BC00F3E7002170B5D0E90065720806F001031B
:1067CC0042EAC5729B184FEA550444EB0101C0E93B
:1067DC00003170BDF0B5D0E900320527023342F12B
:1067EC000002B2FBF7FE4FF0000C07FB0EF1B3EB0F
:1067FC000C0662EB0101F20842EA4172B2FBF7F1BE
:10680C00CA001CEB02044FEA51734EEB0305A2FBCA
:10681C000723B31AB3FBF7F3E41845F10005C0E9FD
:10682C000045F0BD0B6870B5002B04460FDD013B35
:10683C000B600A2122684068A2FB015601FB00662E
:10684C0026F07043C4E90053300F303070BD302057
:10685C00FCE74FF0FF3070474B68012B07DD0B68EE
:10686C0018700B6801330B604B68013B4B600020C8
:10687C0070478A6870B513680E46C340DB0716D59F
:10688C005168A1B10C680125002C38BF002485404B
:10689C008B681D4203D02A4630464B68984734B16A
:1068AC0023682146002B38BF00231C46F0E770BD3F
:1068BC00006810B580680468084631B9A16821FAEF
:1068CC0002F202F001021A6010BD6FF02200FBE729
:1068DC00836830B5586858B10024814213D10868D8
:1068EC005CB99C685860A14200D198600020086097
:1068FC0072B9002030BD2846EFE7206098688142CD
:10690C0008BF9C60F2E705680446002DF3D13AB14C
:10691C005A680A60986859600028EAD19960E9E7DA
:10692C006FF01500E6E710B58468084631B901230D
:10693C0003FA02F223681343236010BD6FF02200A8
:10694C00FBE710B58468084639B9012303FA02F253
:10695C00236823EA0203236010BD6FF02200FBE7DB
:10696C0070B50D0E445991FAA1F3B3FA83F30F26C7
:10697C009B0006FA03F324EA030491FAA1F1B1FA9D
:10698C0081F1890002FA01F12143415170BD70B5CA
:10699C000D0E445991FAA1F3B3FA83F303269B002D
:1069AC0006FA03F324EA030491FAA1F1B1FA81F196
:1069BC00890002FA01F12143415170BD70B50D0EF1
:1069CC00445991FAA1F3B3FA83F304269B0006FA17
:1069DC0003F324EA030491FAA1F1B1FA81F18900DD
:1069EC0002FA01F12143415170BD006870B5806815
:1069FC0005680846B9B90124072A04FA02F6C4BF8F
:106A0C0002F0070204FA02F24FEA0621CABF0A4357
:106A1C0046EA010242F08062C2F30F220BB12A61F6
:106A2C0070BD6A61FCE76FF02200F9E7034600F0E5
:106A3C000100A1B118B1012300200B60704703F4D1
:106A4C004073B3F5807F02D184230B607047B3F59C
:106A5C00007F02D14FF48273F7E70223F5E76FF062
:106A6C001500704738B50123154603FA01F40729C0
:106A7C004FEA0422C3BF01F0070403FA04F41443E1
:106A8C001443C8BF44F08064EA0728D415F006020A
:106A9C0004D12146FFF764FF002038BD022A01D142
:106AAC000422F6E721460822FFF75AFF05F4C075C9
:106ABC00802D4FEA1423C1686FEA14240AD12140B7
:106ACC0093FAA3F30124B3FA83F304FA03F30B430D
